{
  "contractName": "TaskContract",
  "abi": [
    {
      "inputs": [],
      "stateMutability": "nonpayable",
      "type": "constructor"
    },
    {
      "anonymous": false,
      "inputs": [
        {
          "indexed": false,
          "internalType": "uint256",
          "name": "id",
          "type": "uint256"
        },
        {
          "indexed": false,
          "internalType": "string",
          "name": "title",
          "type": "string"
        },
        {
          "indexed": false,
          "internalType": "string",
          "name": "description",
          "type": "string"
        },
        {
          "indexed": false,
          "internalType": "bool",
          "name": "done",
          "type": "bool"
        },
        {
          "indexed": false,
          "internalType": "uint256",
          "name": "dateAdd",
          "type": "uint256"
        }
      ],
      "name": "TaskCreated",
      "type": "event"
    },
    {
      "anonymous": false,
      "inputs": [
        {
          "indexed": false,
          "internalType": "uint256",
          "name": "id",
          "type": "uint256"
        },
        {
          "indexed": false,
          "internalType": "bool",
          "name": "done",
          "type": "bool"
        }
      ],
      "name": "TaskToggleDone",
      "type": "event"
    },
    {
      "inputs": [],
      "name": "counter",
      "outputs": [
        {
          "internalType": "uint256",
          "name": "",
          "type": "uint256"
        }
      ],
      "stateMutability": "view",
      "type": "function",
      "constant": true
    },
    {
      "inputs": [
        {
          "internalType": "uint256",
          "name": "",
          "type": "uint256"
        }
      ],
      "name": "tasks",
      "outputs": [
        {
          "internalType": "uint256",
          "name": "id",
          "type": "uint256"
        },
        {
          "internalType": "string",
          "name": "title",
          "type": "string"
        },
        {
          "internalType": "string",
          "name": "description",
          "type": "string"
        },
        {
          "internalType": "bool",
          "name": "done",
          "type": "bool"
        },
        {
          "internalType": "uint256",
          "name": "dateAdd",
          "type": "uint256"
        }
      ],
      "stateMutability": "view",
      "type": "function",
      "constant": true
    },
    {
      "inputs": [
        {
          "internalType": "string",
          "name": "_title",
          "type": "string"
        },
        {
          "internalType": "string",
          "name": "_description",
          "type": "string"
        }
      ],
      "name": "createTask",
      "outputs": [],
      "stateMutability": "nonpayable",
      "type": "function"
    },
    {
      "inputs": [
        {
          "internalType": "uint256",
          "name": "_id",
          "type": "uint256"
        }
      ],
      "name": "toggleDone",
      "outputs": [],
      "stateMutability": "nonpayable",
      "type": "function"
    }
  ],
  "bytecode": "0x6080604052600080553480156200001557600080fd5b5060006040518060400160405280600d81526020017f5461726561206465205465737400000000000000000000000000000000000000815250905060006040518060400160405280601c81526020017f4573746120657320756e6120746172656120646520656a656d706c6f0000000081525090506200009c8282620000a460201b60201c565b5050620004ab565b6001600080828254620000b89190620002ac565b92505081905550600042905060006040518060a00160405280600054815260200185815260200184815260200182151581526020018381525060016000805481526020019081526020016000206000820151816000015560208201518160010190805190602001906200012d929190620001c3565b5060408201518160020190805190602001906200014c929190620001c3565b5060608201518160030160006101000a81548160ff021916908315150217905550608082015181600401559050507f6549102bed7d1bb5ec529ee14e2ca60ffc1f47f66d4cc6ca713220613cc64c2560005485858486604051620001b5959493929190620003db565b60405180910390a150505050565b828054620001d19062000475565b90600052602060002090601f016020900481019282620001f5576000855562000241565b82601f106200021057805160ff191683800117855562000241565b8280016001018555821562000241579182015b828111156200024057825182559160200191906001019062000223565b5b50905062000250919062000254565b5090565b5b808211156200026f57600081600090555060010162000255565b5090565b6000819050919050565b7f4e487b7100000000000000000000000000000000000000000000000000000000600052601160045260246000fd5b6000620002b98262000273565b9150620002c68362000273565b9250827fffffffffffffffffffffffffffffffffffffffffffffffffffffffffffffffff03821115620002fe57620002fd6200027d565b5b828201905092915050565b620003148162000273565b82525050565b600081519050919050565b600082825260208201905092915050565b60005b838110156200035657808201518184015260208101905062000339565b8381111562000366576000848401525b50505050565b6000601f19601f8301169050919050565b60006200038a826200031a565b62000396818562000325565b9350620003a881856020860162000336565b620003b3816200036c565b840191505092915050565b60008115159050919050565b620003d581620003be565b82525050565b600060a082019050620003f2600083018862000309565b81810360208301526200040681876200037d565b905081810360408301526200041c81866200037d565b90506200042d6060830185620003ca565b6200043c608083018462000309565b9695505050505050565b7f4e487b7100000000000000000000000000000000000000000000000000000000600052602260045260246000fd5b600060028204905060018216806200048e57607f821691505b60208210811415620004a557620004a462000446565b5b50919050565b61094780620004bb6000396000f3fe608060405234801561001057600080fd5b506004361061004c5760003560e01c8063292a45851461005157806361bc221a1461006d5780638d9776721461008b578063d81ef739146100bf575b600080fd5b61006b600480360381019061006691906105f9565b6100db565b005b6100756101f2565b604051610082919061068a565b60405180910390f35b6100a560048036038101906100a091906106d1565b6101f8565b6040516100b69594939291906107a1565b60405180910390f35b6100d960048036038101906100d491906106d1565b61034b565b005b60016000808282546100ed9190610831565b92505081905550600042905060006040518060a00160405280600054815260200185815260200184815260200182151581526020018381525060016000805481526020019081526020016000206000820151816000015560208201518160010190805190602001906101609291906103fc565b50604082015181600201908051906020019061017d9291906103fc565b5060608201518160030160006101000a81548160ff021916908315150217905550608082015181600401559050507f6549102bed7d1bb5ec529ee14e2ca60ffc1f47f66d4cc6ca713220613cc64c25600054858584866040516101e49594939291906107a1565b60405180910390a150505050565b60005481565b6001602052806000526040600020600091509050806000015490806001018054610221906108b6565b80601f016020809104026020016040519081016040528092919081815260200182805461024d906108b6565b801561029a5780601f1061026f5761010080835404028352916020019161029a565b820191906000526020600020905b81548152906001019060200180831161027d57829003601f168201915b5050505050908060020180546102af906108b6565b80601f01602080910402602001604051908101604052809291908181526020018280546102db906108b6565b80156103285780601f106102fd57610100808354040283529160200191610328565b820191906000526020600020905b81548152906001019060200180831161030b57829003601f168201915b5050505050908060030160009054906101000a900460ff16908060040154905085565b6001600082815260200190815260200160002060030160009054906101000a900460ff16156001600083815260200190815260200160002060030160006101000a81548160ff0219169083151502179055507f389dee00d487dd41dd5bf0f43eeaa5b663b3af022d52368df89d388150295f45816001600084815260200190815260200160002060030160009054906101000a900460ff166040516103f19291906108e8565b60405180910390a150565b828054610408906108b6565b90600052602060002090601f01602090048101928261042a5760008555610471565b82601f1061044357805160ff1916838001178555610471565b82800160010185558215610471579182015b82811115610470578251825591602001919060010190610455565b5b50905061047e9190610482565b5090565b5b8082111561049b576000816000905550600101610483565b5090565b6000604051905090565b600080fd5b600080fd5b600080fd5b600080fd5b6000601f19601f8301169050919050565b7f4e487b7100000000000000000000000000000000000000000000000000000000600052604160045260246000fd5b610506826104bd565b810181811067ffffffffffffffff82111715610525576105246104ce565b5b80604052505050565b600061053861049f565b905061054482826104fd565b919050565b600067ffffffffffffffff821115610564576105636104ce565b5b61056d826104bd565b9050602081019050919050565b82818337600083830152505050565b600061059c61059784610549565b61052e565b9050828152602081018484840111156105b8576105b76104b8565b5b6105c384828561057a565b509392505050565b600082601f8301126105e0576105df6104b3565b5b81356105f0848260208601610589565b91505092915050565b600080604083850312156106105761060f6104a9565b5b600083013567ffffffffffffffff81111561062e5761062d6104ae565b5b61063a858286016105cb565b925050602083013567ffffffffffffffff81111561065b5761065a6104ae565b5b610667858286016105cb565b9150509250929050565b6000819050919050565b61068481610671565b82525050565b600060208201905061069f600083018461067b565b92915050565b6106ae81610671565b81146106b957600080fd5b50565b6000813590506106cb816106a5565b92915050565b6000602082840312156106e7576106e66104a9565b5b60006106f5848285016106bc565b91505092915050565b600081519050919050565b600082825260208201905092915050565b60005b8381101561073857808201518184015260208101905061071d565b83811115610747576000848401525b50505050565b6000610758826106fe565b6107628185610709565b935061077281856020860161071a565b61077b816104bd565b840191505092915050565b60008115159050919050565b61079b81610786565b82525050565b600060a0820190506107b6600083018861067b565b81810360208301526107c8818761074d565b905081810360408301526107dc818661074d565b90506107eb6060830185610792565b6107f8608083018461067b565b9695505050505050565b7f4e487b7100000000000000000000000000000000000000000000000000000000600052601160045260246000fd5b600061083c82610671565b915061084783610671565b9250827fffffffffffffffffffffffffffffffffffffffffffffffffffffffffffffffff0382111561087c5761087b610802565b5b828201905092915050565b7f4e487b7100000000000000000000000000000000000000000000000000000000600052602260045260246000fd5b600060028204905060018216806108ce57607f821691505b602082108114156108e2576108e1610887565b5b50919050565b60006040820190506108fd600083018561067b565b61090a6020830184610792565b939250505056fea2646970667358221220b0373f5601dba3a5f139cf4927698ea830e7cc4c13e166194f914ccd41bb4f1464736f6c634300080b0033",
  "immutableReferences": {},
  "source": "// SPDX-License-Identifier: MIT\r\npragma solidity ^0.8.0;\r\n\r\ncontract TaskContract {\r\n    uint256 public counter = 0;\r\n\r\n    constructor() {\r\n        string memory _title = \"Tarea de Test\";\r\n        string memory _description = \"Esta es una tarea de ejemplo\";\r\n        createTask(_title, _description);\r\n    }\r\n\r\n    struct Task {\r\n        uint256 id;\r\n        string title;\r\n        string description;\r\n        bool done;\r\n        uint256 dateAdd;\r\n    }\r\n\r\n    event TaskCreated(\r\n        uint256 id,\r\n        string title,\r\n        string description,\r\n        bool done,\r\n        uint256 dateAdd\r\n    );\r\n\r\n    event TaskToggleDone(uint256 id, bool done);\r\n\r\n    mapping(uint256 => Task) public tasks;\r\n\r\n    function createTask(string memory _title, string memory _description)\r\n        public\r\n    {\r\n        counter += 1;\r\n        uint256 _dateAdd = block.timestamp;\r\n        bool _done = false;\r\n        tasks[counter] = Task(counter, _title, _description, _done, _dateAdd);\r\n        emit TaskCreated(counter, _title, _description, _done, _dateAdd);\r\n    }\r\n\r\n    function toggleDone(uint256 _id) public {\r\n        tasks[_id].done = !tasks[_id].done;\r\n        emit TaskToggleDone(_id, tasks[_id].done);\r\n    }\r\n}\r\n",
  "sourcePath": "C:\\Users\\20018\\solidity\\taskproject\\contracts\\Tasks.sol",
  "compiler": {
    "name": "solc",
    "version": "0.8.11+commit.d7f03943.Emscripten.clang"
  },
  "schemaVersion": "3.4.5",
  "updatedAt": "2022-02-23T06:38:36.100Z",
  "networkType": "ethereum",
  "devdoc": {
    "kind": "dev",
    "methods": {},
    "version": 1
  },
  "userdoc": {
    "kind": "user",
    "methods": {},
    "version": 1
  }
}